{
  "_format": "hh-sol-artifact-1",
  "contractName": "Token",
  "sourceName": "contracts/Token.sol",
  "abi": [
    {
      "inputs": [
        {
          "internalType": "uint256",
          "name": "tokenTotalSupply",
          "type": "uint256"
        },
        {
          "internalType": "string",
          "name": "tokenName",
          "type": "string"
        },
        {
          "internalType": "string",
          "name": "tokenSymbol",
          "type": "string"
        },
        {
          "internalType": "uint8",
          "name": "tokenDecimals",
          "type": "uint8"
        }
      ],
      "stateMutability": "nonpayable",
      "type": "constructor"
    },
    {
      "anonymous": false,
      "inputs": [
        {
          "indexed": true,
          "internalType": "address",
          "name": "owner",
          "type": "address"
        },
        {
          "indexed": true,
          "internalType": "address",
          "name": "spender",
          "type": "address"
        },
        {
          "indexed": false,
          "internalType": "uint256",
          "name": "value",
          "type": "uint256"
        }
      ],
      "name": "Approval",
      "type": "event"
    },
    {
      "anonymous": false,
      "inputs": [
        {
          "indexed": true,
          "internalType": "uint256",
          "name": "id",
          "type": "uint256"
        },
        {
          "indexed": true,
          "internalType": "address",
          "name": "seller",
          "type": "address"
        },
        {
          "indexed": false,
          "internalType": "uint256",
          "name": "amount",
          "type": "uint256"
        },
        {
          "indexed": false,
          "internalType": "uint256",
          "name": "price",
          "type": "uint256"
        }
      ],
      "name": "OrderPlaced",
      "type": "event"
    },
    {
      "anonymous": false,
      "inputs": [
        {
          "indexed": true,
          "internalType": "address",
          "name": "previousOwner",
          "type": "address"
        },
        {
          "indexed": true,
          "internalType": "address",
          "name": "newOwner",
          "type": "address"
        }
      ],
      "name": "OwnershipTransferred",
      "type": "event"
    },
    {
      "anonymous": false,
      "inputs": [
        {
          "indexed": true,
          "internalType": "uint256",
          "name": "id",
          "type": "uint256"
        },
        {
          "indexed": true,
          "internalType": "address",
          "name": "seller",
          "type": "address"
        },
        {
          "indexed": true,
          "internalType": "address",
          "name": "buyer",
          "type": "address"
        },
        {
          "indexed": false,
          "internalType": "uint256",
          "name": "amount",
          "type": "uint256"
        },
        {
          "indexed": false,
          "internalType": "uint256",
          "name": "price",
          "type": "uint256"
        }
      ],
      "name": "Selled",
      "type": "event"
    },
    {
      "anonymous": false,
      "inputs": [
        {
          "indexed": true,
          "internalType": "address",
          "name": "holder",
          "type": "address"
        },
        {
          "indexed": false,
          "internalType": "uint256",
          "name": "amount",
          "type": "uint256"
        },
        {
          "indexed": false,
          "internalType": "uint256",
          "name": "stakeholderId",
          "type": "uint256"
        },
        {
          "indexed": false,
          "internalType": "uint256",
          "name": "stakedAt",
          "type": "uint256"
        }
      ],
      "name": "Staked",
      "type": "event"
    },
    {
      "anonymous": false,
      "inputs": [
        {
          "indexed": true,
          "internalType": "address",
          "name": "from",
          "type": "address"
        },
        {
          "indexed": true,
          "internalType": "address",
          "name": "to",
          "type": "address"
        },
        {
          "indexed": false,
          "internalType": "uint256",
          "name": "value",
          "type": "uint256"
        }
      ],
      "name": "Transfer",
      "type": "event"
    },
    {
      "anonymous": false,
      "inputs": [
        {
          "indexed": true,
          "internalType": "uint256",
          "name": "id",
          "type": "uint256"
        },
        {
          "indexed": false,
          "internalType": "uint256",
          "name": "newAmount",
          "type": "uint256"
        }
      ],
      "name": "UpdatedOrderAmount",
      "type": "event"
    },
    {
      "anonymous": false,
      "inputs": [
        {
          "indexed": true,
          "internalType": "uint256",
          "name": "id",
          "type": "uint256"
        },
        {
          "indexed": false,
          "internalType": "uint256",
          "name": "newPrice",
          "type": "uint256"
        }
      ],
      "name": "UpdatedOrderPrice",
      "type": "event"
    },
    {
      "inputs": [
        {
          "internalType": "address",
          "name": "owner",
          "type": "address"
        },
        {
          "internalType": "address",
          "name": "spender",
          "type": "address"
        }
      ],
      "name": "allowance",
      "outputs": [
        {
          "internalType": "uint256",
          "name": "",
          "type": "uint256"
        }
      ],
      "stateMutability": "view",
      "type": "function"
    },
    {
      "inputs": [
        {
          "internalType": "address",
          "name": "spender",
          "type": "address"
        },
        {
          "internalType": "uint256",
          "name": "amount",
          "type": "uint256"
        }
      ],
      "name": "approve",
      "outputs": [
        {
          "internalType": "bool",
          "name": "",
          "type": "bool"
        }
      ],
      "stateMutability": "nonpayable",
      "type": "function"
    },
    {
      "inputs": [
        {
          "internalType": "address",
          "name": "account",
          "type": "address"
        }
      ],
      "name": "balanceOf",
      "outputs": [
        {
          "internalType": "uint256",
          "name": "",
          "type": "uint256"
        }
      ],
      "stateMutability": "view",
      "type": "function"
    },
    {
      "inputs": [
        {
          "internalType": "address",
          "name": "account",
          "type": "address"
        },
        {
          "internalType": "uint256",
          "name": "amount",
          "type": "uint256"
        }
      ],
      "name": "burn",
      "outputs": [
        {
          "internalType": "bool",
          "name": "",
          "type": "bool"
        }
      ],
      "stateMutability": "nonpayable",
      "type": "function"
    },
    {
      "inputs": [
        {
          "internalType": "uint256",
          "name": "orderId",
          "type": "uint256"
        },
        {
          "internalType": "uint256",
          "name": "amount",
          "type": "uint256"
        }
      ],
      "name": "buyOrder",
      "outputs": [],
      "stateMutability": "payable",
      "type": "function"
    },
    {
      "inputs": [],
      "name": "claimReward",
      "outputs": [],
      "stateMutability": "nonpayable",
      "type": "function"
    },
    {
      "inputs": [],
      "name": "decimals",
      "outputs": [
        {
          "internalType": "uint8",
          "name": "",
          "type": "uint8"
        }
      ],
      "stateMutability": "view",
      "type": "function"
    },
    {
      "inputs": [],
      "name": "getCurrentTokenPrice",
      "outputs": [
        {
          "internalType": "uint256",
          "name": "",
          "type": "uint256"
        }
      ],
      "stateMutability": "view",
      "type": "function"
    },
    {
      "inputs": [],
      "name": "getEtherBalance",
      "outputs": [
        {
          "internalType": "uint256",
          "name": "",
          "type": "uint256"
        }
      ],
      "stateMutability": "view",
      "type": "function"
    },
    {
      "inputs": [
        {
          "internalType": "uint256",
          "name": "orderId",
          "type": "uint256"
        }
      ],
      "name": "getOrder",
      "outputs": [
        {
          "components": [
            {
              "internalType": "uint256",
              "name": "id",
              "type": "uint256"
            },
            {
              "internalType": "address",
              "name": "seller",
              "type": "address"
            },
            {
              "internalType": "uint256",
              "name": "amount",
              "type": "uint256"
            },
            {
              "internalType": "uint256",
              "name": "price",
              "type": "uint256"
            },
            {
              "internalType": "bool",
              "name": "active",
              "type": "bool"
            }
          ],
          "internalType": "struct Tradable.SellOrder",
          "name": "",
          "type": "tuple"
        }
      ],
      "stateMutability": "view",
      "type": "function"
    },
    {
      "inputs": [],
      "name": "listOrders",
      "outputs": [
        {
          "components": [
            {
              "internalType": "uint256",
              "name": "id",
              "type": "uint256"
            },
            {
              "internalType": "address",
              "name": "seller",
              "type": "address"
            },
            {
              "internalType": "uint256",
              "name": "amount",
              "type": "uint256"
            },
            {
              "internalType": "uint256",
              "name": "price",
              "type": "uint256"
            },
            {
              "internalType": "bool",
              "name": "active",
              "type": "bool"
            }
          ],
          "internalType": "struct Tradable.SellOrder[]",
          "name": "",
          "type": "tuple[]"
        }
      ],
      "stateMutability": "view",
      "type": "function"
    },
    {
      "inputs": [
        {
          "internalType": "address",
          "name": "account",
          "type": "address"
        },
        {
          "internalType": "uint256",
          "name": "amount",
          "type": "uint256"
        }
      ],
      "name": "mint",
      "outputs": [
        {
          "internalType": "bool",
          "name": "",
          "type": "bool"
        }
      ],
      "stateMutability": "nonpayable",
      "type": "function"
    },
    {
      "inputs": [],
      "name": "name",
      "outputs": [
        {
          "internalType": "string",
          "name": "",
          "type": "string"
        }
      ],
      "stateMutability": "view",
      "type": "function"
    },
    {
      "inputs": [],
      "name": "owner",
      "outputs": [
        {
          "internalType": "address",
          "name": "",
          "type": "address"
        }
      ],
      "stateMutability": "view",
      "type": "function"
    },
    {
      "inputs": [
        {
          "internalType": "uint256",
          "name": "amount",
          "type": "uint256"
        },
        {
          "internalType": "uint256",
          "name": "price",
          "type": "uint256"
        }
      ],
      "name": "placeOrder",
      "outputs": [],
      "stateMutability": "nonpayable",
      "type": "function"
    },
    {
      "inputs": [
        {
          "internalType": "uint256",
          "name": "orderId",
          "type": "uint256"
        }
      ],
      "name": "removeOrder",
      "outputs": [],
      "stateMutability": "nonpayable",
      "type": "function"
    },
    {
      "inputs": [],
      "name": "renounceOwnership",
      "outputs": [],
      "stateMutability": "nonpayable",
      "type": "function"
    },
    {
      "inputs": [
        {
          "internalType": "uint256",
          "name": "amount",
          "type": "uint256"
        }
      ],
      "name": "stake",
      "outputs": [],
      "stateMutability": "nonpayable",
      "type": "function"
    },
    {
      "inputs": [],
      "name": "stakeReport",
      "outputs": [
        {
          "internalType": "uint256",
          "name": "",
          "type": "uint256"
        },
        {
          "internalType": "uint256",
          "name": "",
          "type": "uint256"
        }
      ],
      "stateMutability": "view",
      "type": "function"
    },
    {
      "inputs": [],
      "name": "symbol",
      "outputs": [
        {
          "internalType": "string",
          "name": "",
          "type": "string"
        }
      ],
      "stateMutability": "view",
      "type": "function"
    },
    {
      "inputs": [],
      "name": "totalSupply",
      "outputs": [
        {
          "internalType": "uint256",
          "name": "",
          "type": "uint256"
        }
      ],
      "stateMutability": "view",
      "type": "function"
    },
    {
      "inputs": [
        {
          "internalType": "address",
          "name": "recipient",
          "type": "address"
        },
        {
          "internalType": "uint256",
          "name": "amount",
          "type": "uint256"
        }
      ],
      "name": "transfer",
      "outputs": [
        {
          "internalType": "bool",
          "name": "",
          "type": "bool"
        }
      ],
      "stateMutability": "nonpayable",
      "type": "function"
    },
    {
      "inputs": [
        {
          "internalType": "address",
          "name": "spender",
          "type": "address"
        },
        {
          "internalType": "address",
          "name": "recipient",
          "type": "address"
        },
        {
          "internalType": "uint256",
          "name": "amount",
          "type": "uint256"
        }
      ],
      "name": "transferFrom",
      "outputs": [
        {
          "internalType": "bool",
          "name": "",
          "type": "bool"
        }
      ],
      "stateMutability": "nonpayable",
      "type": "function"
    },
    {
      "inputs": [
        {
          "internalType": "address",
          "name": "newOwner",
          "type": "address"
        }
      ],
      "name": "transferOwnership",
      "outputs": [],
      "stateMutability": "nonpayable",
      "type": "function"
    },
    {
      "inputs": [
        {
          "internalType": "uint256",
          "name": "amount",
          "type": "uint256"
        }
      ],
      "name": "unstake",
      "outputs": [],
      "stateMutability": "nonpayable",
      "type": "function"
    },
    {
      "inputs": [
        {
          "internalType": "uint256",
          "name": "orderId",
          "type": "uint256"
        },
        {
          "internalType": "uint256",
          "name": "newPrice",
          "type": "uint256"
        }
      ],
      "name": "updateOrderPrice",
      "outputs": [],
      "stateMutability": "nonpayable",
      "type": "function"
    },
    {
      "inputs": [],
      "name": "withdraw",
      "outputs": [],
      "stateMutability": "payable",
      "type": "function"
    }
  ],
  "bytecode": "0x60806040526169786001553480156200001757600080fd5b506040516200573a3803806200573a83398181016040528101906200003d9190620005a9565b6200005d62000051620001ad60201b60201c565b620001b560201b60201c565b6002600181600181540180825580915050039060005260206000209050508360058190555082600990805190602001906200009a92919062000459565b508160089080519060200190620000b392919062000459565b5080600760006101000a81548160ff021916908360ff160217905550600554600a60003373ffffffffffffffffffffffffffffffffffffffff1673ffffffffffffffffffffffffffffffffffffffff16815260200190815260200160002081905550662386f26fc10000600681905550620001396005546006546200027960201b60201c565b3373ffffffffffffffffffffffffffffffffffffffff16600073ffffffffffffffffffffffffffffffffffffffff167fddf252ad1be2c89b69c2b068fc378daa952ba7f163c4a11628f55a4df523b3ef6005546040516200019b9190620006ea565b60405180910390a350505050620009c4565b600033905090565b60008060009054906101000a900473ffffffffffffffffffffffffffffffffffffffff169050816000806101000a81548173ffffffffffffffffffffffffffffffffffffffff021916908373ffffffffffffffffffffffffffffffffffffffff1602179055508173ffffffffffffffffffffffffffffffffffffffff168173ffffffffffffffffffffffffffffffffffffffff167f8be0079c531659141344cd1fd0a4f28419497f9722a3daafe3b4186f6b6457e060405160405180910390a35050565b60008211620002bf576040517f08c379a0000000000000000000000000000000000000000000000000000000008152600401620002b690620006c8565b60405180910390fd5b6000811162000305576040517f08c379a0000000000000000000000000000000000000000000000000000000008152600401620002fc90620006a6565b60405180910390fd5b6000600480549050905060046040518060a001604052808381526020013373ffffffffffffffffffffffffffffffffffffffff1681526020018581526020018481526020016001151581525090806001815401808255809150506001900390600052602060002090600502016000909190919091506000820151816000015560208201518160010160006101000a81548173ffffffffffffffffffffffffffffffffffffffff021916908373ffffffffffffffffffffffffffffffffffffffff160217905550604082015181600201556060820151816003015560808201518160040160006101000a81548160ff02191690831515021790555050503373ffffffffffffffffffffffffffffffffffffffff16817f59827a9898740dc87f0e01c9f27ae034611bb083f06d7eb3efaef27336e3c4dd85856040516200044c92919062000707565b60405180910390a3505050565b8280546200046790620007f1565b90600052602060002090601f0160209004810192826200048b5760008555620004d7565b82601f10620004a657805160ff1916838001178555620004d7565b82800160010185558215620004d7579182015b82811115620004d6578251825591602001919060010190620004b9565b5b509050620004e69190620004ea565b5090565b5b8082111562000505576000816000905550600101620004eb565b5090565b6000620005206200051a846200075d565b62000734565b9050828152602081018484840111156200053957600080fd5b62000546848285620007bb565b509392505050565b600082601f8301126200056057600080fd5b81516200057284826020860162000509565b91505092915050565b6000815190506200058c8162000990565b92915050565b600081519050620005a381620009aa565b92915050565b60008060008060808587031215620005c057600080fd5b6000620005d0878288016200057b565b945050602085015167ffffffffffffffff811115620005ee57600080fd5b620005fc878288016200054e565b935050604085015167ffffffffffffffff8111156200061a57600080fd5b62000628878288016200054e565b92505060606200063b8782880162000592565b91505092959194509250565b600062000656603c8362000793565b91506200066382620008cc565b604082019050919050565b60006200067d60478362000793565b91506200068a826200091b565b606082019050919050565b620006a081620007a4565b82525050565b60006020820190508181036000830152620006c18162000647565b9050919050565b60006020820190508181036000830152620006e3816200066e565b9050919050565b600060208201905062000701600083018462000695565b92915050565b60006040820190506200071e600083018562000695565b6200072d602083018462000695565b9392505050565b60006200074062000753565b90506200074e828262000827565b919050565b6000604051905090565b600067ffffffffffffffff8211156200077b576200077a6200088c565b5b6200078682620008bb565b9050602081019050919050565b600082825260208201905092915050565b6000819050919050565b600060ff82169050919050565b60005b83811015620007db578082015181840152602081019050620007be565b83811115620007eb576000848401525b50505050565b600060028204905060018216806200080a57607f821691505b602082108114156200082157620008206200085d565b5b50919050565b6200083282620008bb565b810181811067ffffffffffffffff821117156200085457620008536200088c565b5b80604052505050565b7f4e487b7100000000000000000000000000000000000000000000000000000000600052602260045260246000fd5b7f4e487b7100000000000000000000000000000000000000000000000000000000600052604160045260246000fd5b6000601f19601f8301169050919050565b7f5472616261626c653a20796f75206f7264657220746f6b656e2070726963652060008201527f6d75737420626520706f737469766520616e64206e6f74206e756c6c00000000602082015250565b7f5472616461626c653a20796f752063616e206f6e6c7920706c6163652061207360008201527f656c6c206f72646572206f66206120706f736974697665206e6f6e206e756c6c60208201527f20616d6f756e7400000000000000000000000000000000000000000000000000604082015250565b6200099b81620007a4565b8114620009a757600080fd5b50565b620009b581620007ae565b8114620009c157600080fd5b50565b614d6680620009d46000396000f3fe60806040526004361061019c5760003560e01c8063843f61e2116100ec578063a9059cbb1161008a578063dd62ed3e11610064578063dd62ed3e1461059b578063ea46193e146105d8578063f2fde38b14610603578063f751758b1461062c5761019c565b8063a9059cbb1461050a578063b88a802f14610547578063d09ef2411461055e5761019c565b80639645337a116100c65780639645337a1461044f57806396e35b29146104785780639dc29fac146104a4578063a694fc3a146104e15761019c565b8063843f61e2146103d05780638da5cb5b146103f957806395d89b41146104245761019c565b80632e17de781161015957806340c10f191161013357806340c10f19146103165780635e9e78d01461035357806370a082311461037c578063715018a6146103b95761019c565b80632e17de78146102b8578063313ce567146102e15780633ccfd60b1461030c5761019c565b806306fdde03146101a1578063095ea7b3146101cc578063142ee8d814610209578063176091f41461022557806318160ddd1461025057806323b872dd1461027b575b600080fd5b3480156101ad57600080fd5b506101b6610657565b6040516101c39190613e8b565b60405180910390f35b3480156101d857600080fd5b506101f360048036038101906101ee9190613807565b6106e9565b6040516102009190613e70565b60405180910390f35b610223600480360381019061021e919061386c565b610700565b005b34801561023157600080fd5b5061023a6109a6565b6040516102479190613e4e565b60405180910390f35b34801561025c57600080fd5b506102656109b5565b60405161027291906141e8565b60405180910390f35b34801561028757600080fd5b506102a2600480360381019061029d91906137b8565b6109bf565b6040516102af9190613e70565b60405180910390f35b3480156102c457600080fd5b506102df60048036038101906102da9190613843565b610b28565b005b3480156102ed57600080fd5b506102f6610b43565b6040516103039190614263565b60405180910390f35b610314610b5a565b005b34801561032257600080fd5b5061033d60048036038101906103389190613807565b610e52565b60405161034a9190613e70565b60405180910390f35b34801561035f57600080fd5b5061037a6004803603810190610375919061386c565b610ee4565b005b34801561038857600080fd5b506103a3600480360381019061039e9190613753565b610ef2565b6040516103b091906141e8565b60405180910390f35b3480156103c557600080fd5b506103ce610f3b565b005b3480156103dc57600080fd5b506103f760048036038101906103f2919061386c565b610fc3565b005b34801561040557600080fd5b5061040e61105d565b60405161041b9190613e33565b60405180910390f35b34801561043057600080fd5b50610439611086565b6040516104469190613e8b565b60405180910390f35b34801561045b57600080fd5b5061047660048036038101906104719190613843565b611118565b005b34801561048457600080fd5b5061048d611140565b60405161049b929190614203565b60405180910390f35b3480156104b057600080fd5b506104cb60048036038101906104c69190613807565b611280565b6040516104d89190613e70565b60405180910390f35b3480156104ed57600080fd5b5061050860048036038101906105039190613843565b611312565b005b34801561051657600080fd5b50610531600480360381019061052c9190613807565b6113aa565b60405161053e9190613e70565b60405180910390f35b34801561055357600080fd5b5061055c6113c1565b005b34801561056a57600080fd5b5061058560048036038101906105809190613843565b6113da565b60405161059291906141cd565b60405180910390f35b3480156105a757600080fd5b506105c260048036038101906105bd919061377c565b6113f2565b6040516105cf91906141e8565b60405180910390f35b3480156105e457600080fd5b506105ed611479565b6040516105fa91906141e8565b60405180910390f35b34801561060f57600080fd5b5061062a60048036038101906106259190613753565b6114c0565b005b34801561063857600080fd5b506106416115b8565b60405161064e91906141e8565b60405180910390f35b6060600980546106669061447b565b80601f01602080910402602001604051908101604052809291908181526020018280546106929061447b565b80156106df5780601f106106b4576101008083540402835291602001916106df565b820191906000526020600020905b8154815290600101906020018083116106c257829003601f168201915b5050505050905090565b60006106f63384846115c2565b6001905092915050565b600d60003373ffffffffffffffffffffffffffffffffffffffff1673ffffffffffffffffffffffffffffffffffffffff16815260200190815260200160002060009054906101000a900460ff161561078d576040517f08c379a00000000000000000000000000000000000000000000000000000000081526004016107849061408d565b60405180910390fd5b6001600d60003373ffffffffffffffffffffffffffffffffffffffff1673ffffffffffffffffffffffffffffffffffffffff16815260200190815260200160002060006101000a81548160ff02191690831515021790555060006107f08361178d565b905060008282606001516108049190614365565b905080341015610849576040517f08c379a00000000000000000000000000000000000000000000000000000000081526004016108409061414d565b60405180910390fd5b600061085361105d565b905060006064346108649190614334565b90506000813461087491906143bf565b905080600c6000876020015173ffffffffffffffffffffffffffffffffffffffff1673ffffffffffffffffffffffffffffffffffffffff16815260200190815260200160002060008282546108c991906142de565b9250508190555081600c60008573ffffffffffffffffffffffffffffffffffffffff1673ffffffffffffffffffffffffffffffffffffffff168152602001908152602001600020600082825461091f91906142de565b92505081905550610930878761187e565b84606001516006819055506109453387611d4a565b50505050506000600d60003373ffffffffffffffffffffffffffffffffffffffff1673ffffffffffffffffffffffffffffffffffffffff16815260200190815260200160002060006101000a81548160ff0219169083151502179055505050565b60606109b0611ec6565b905090565b6000600554905090565b600081600b60008673ffffffffffffffffffffffffffffffffffffffff1673ffffffffffffffffffffffffffffffffffffffff16815260200190815260200160002060003373ffffffffffffffffffffffffffffffffffffffff1673ffffffffffffffffffffffffffffffffffffffff168152602001908152602001600020541015610a80576040517f08c379a0000000000000000000000000000000000000000000000000000000008152600401610a7790613f8d565b60405180910390fd5b610a8b848484611fb4565b610b1d843384600b60008973ffffffffffffffffffffffffffffffffffffffff1673ffffffffffffffffffffffffffffffffffffffff16815260200190815260200160002060003373ffffffffffffffffffffffffffffffffffffffff1673ffffffffffffffffffffffffffffffffffffffff16815260200190815260200160002054610b1891906143bf565b6115c2565b600190509392505050565b6000610b338261229c565b9050610b3f3382611d4a565b5050565b6000600760009054906101000a900460ff16905090565b600d60003373ffffffffffffffffffffffffffffffffffffffff1673ffffffffffffffffffffffffffffffffffffffff16815260200190815260200160002060009054906101000a900460ff1615610be7576040517f08c379a0000000000000000000000000000000000000000000000000000000008152600401610bde9061408d565b60405180910390fd5b6001600d60003373ffffffffffffffffffffffffffffffffffffffff1673ffffffffffffffffffffffffffffffffffffffff16815260200190815260200160002060006101000a81548160ff0219169083151502179055506000600c60003373ffffffffffffffffffffffffffffffffffffffff1673ffffffffffffffffffffffffffffffffffffffff1681526020019081526020016000205411610cc1576040517f08c379a0000000000000000000000000000000000000000000000000000000008152600401610cb8906140cd565b60405180910390fd5b6000600c60003373ffffffffffffffffffffffffffffffffffffffff1673ffffffffffffffffffffffffffffffffffffffff1681526020019081526020016000205490506000600c60003373ffffffffffffffffffffffffffffffffffffffff1673ffffffffffffffffffffffffffffffffffffffff1681526020019081526020016000208190555060003373ffffffffffffffffffffffffffffffffffffffff1682604051610d7090613e1e565b60006040518083038185875af1925050503d8060008114610dad576040519150601f19603f3d011682016040523d82523d6000602084013e610db2565b606091505b5050905080610df6576040517f08c379a0000000000000000000000000000000000000000000000000000000008152600401610ded9061416d565b60405180910390fd5b50506000600d60003373ffffffffffffffffffffffffffffffffffffffff1673ffffffffffffffffffffffffffffffffffffffff16815260200190815260200160002060006101000a81548160ff021916908315150217905550565b6000610e5c61262f565b73ffffffffffffffffffffffffffffffffffffffff16610e7a61105d565b73ffffffffffffffffffffffffffffffffffffffff1614610ed0576040517f08c379a0000000000000000000000000000000000000000000000000000000008152600401610ec7906140ed565b60405180910390fd5b610eda8383611d4a565b6001905092915050565b610eee8282612637565b5050565b6000600a60008373ffffffffffffffffffffffffffffffffffffffff1673ffffffffffffffffffffffffffffffffffffffff168152602001908152602001600020549050919050565b610f4361262f565b73ffffffffffffffffffffffffffffffffffffffff16610f6161105d565b73ffffffffffffffffffffffffffffffffffffffff1614610fb7576040517f08c379a0000000000000000000000000000000000000000000000000000000008152600401610fae906140ed565b60405180910390fd5b610fc1600061287e565b565b600a60003373ffffffffffffffffffffffffffffffffffffffff1673ffffffffffffffffffffffffffffffffffffffff16815260200190815260200160002054821115611045576040517f08c379a000000000000000000000000000000000000000000000000000000000815260040161103c90613fad565b60405180910390fd5b61104f3383612942565b6110598282612b40565b5050565b60008060009054906101000a900473ffffffffffffffffffffffffffffffffffffffff16905090565b6060600880546110959061447b565b80601f01602080910402602001604051908101604052809291908181526020018280546110c19061447b565b801561110e5780601f106110e35761010080835404028352916020019161110e565b820191906000526020600020905b8154815290600101906020018083116110f157829003601f168201915b5050505050905090565b61112181612d18565b600061112c8261178d565b905061113c338260400151611d4a565b5050565b6000806000600360003373ffffffffffffffffffffffffffffffffffffffff1673ffffffffffffffffffffffffffffffffffffffff1681526020019081526020016000205414156111c6576040517f08c379a00000000000000000000000000000000000000000000000000000000081526004016111bd9061418d565b60405180910390fd5b6000600360003373ffffffffffffffffffffffffffffffffffffffff1673ffffffffffffffffffffffffffffffffffffffff168152602001908152602001600020549050600060028281548110611246577f4e487b7100000000000000000000000000000000000000000000000000000000600052603260045260246000fd5b906000526020600020906002020160010180549050905060008061126a8484612ef7565b8092508193505050818195509550505050509091565b600061128a61262f565b73ffffffffffffffffffffffffffffffffffffffff166112a861105d565b73ffffffffffffffffffffffffffffffffffffffff16146112fe576040517f08c379a00000000000000000000000000000000000000000000000000000000081526004016112f5906140ed565b60405180910390fd5b6113088383612942565b6001905092915050565b600a60003373ffffffffffffffffffffffffffffffffffffffff1673ffffffffffffffffffffffffffffffffffffffff16815260200190815260200160002054811115611394576040517f08c379a000000000000000000000000000000000000000000000000000000000815260040161138b90613fcd565b60405180910390fd5b61139d81613064565b6113a73382612942565b50565b60006113b7338484611fb4565b6001905092915050565b60006113cb61325e565b90506113d73382611d4a565b50565b6113e26136e2565b6113eb8261178d565b9050919050565b6000600b60008473ffffffffffffffffffffffffffffffffffffffff1673ffffffffffffffffffffffffffffffffffffffff16815260200190815260200160002060008373ffffffffffffffffffffffffffffffffffffffff1673ffffffffffffffffffffffffffffffffffffffff16815260200190815260200160002054905092915050565b6000600c60003373ffffffffffffffffffffffffffffffffffffffff1673ffffffffffffffffffffffffffffffffffffffff16815260200190815260200160002054905090565b6114c861262f565b73ffffffffffffffffffffffffffffffffffffffff166114e661105d565b73ffffffffffffffffffffffffffffffffffffffff161461153c576040517f08c379a0000000000000000000000000000000000000000000000000000000008152600401611533906140ed565b60405180910390fd5b600073ffffffffffffffffffffffffffffffffffffffff168173ffffffffffffffffffffffffffffffffffffffff1614156115ac576040517f08c379a00000000000000000000000000000000000000000000000000000000081526004016115a390613eed565b60405180910390fd5b6115b58161287e565b50565b6000600654905090565b600073ffffffffffffffffffffffffffffffffffffffff168373ffffffffffffffffffffffffffffffffffffffff161415611632576040517f08c379a000000000000000000000000000000000000000000000000000000000815260040161162990613fed565b60405180910390fd5b600073ffffffffffffffffffffffffffffffffffffffff168273ffffffffffffffffffffffffffffffffffffffff1614156116a2576040517f08c379a000000000000000000000000000000000000000000000000000000000815260040161169990613f4d565b60405180910390fd5b80600b60008573ffffffffffffffffffffffffffffffffffffffff1673ffffffffffffffffffffffffffffffffffffffff16815260200190815260200160002060008473ffffffffffffffffffffffffffffffffffffffff1673ffffffffffffffffffffffffffffffffffffffff168152602001908152602001600020819055508173ffffffffffffffffffffffffffffffffffffffff168373ffffffffffffffffffffffffffffffffffffffff167f8c5be1e5ebec7d5bd14f71427d1e84f3dd0314c0f7b2291e5b200ac8c7c3b9258360405161178091906141e8565b60405180910390a3505050565b6117956136e2565b600482815481106117cf577f4e487b7100000000000000000000000000000000000000000000000000000000600052603260045260246000fd5b90600052602060002090600502016040518060a0016040529081600082015481526020016001820160009054906101000a900473ffffffffffffffffffffffffffffffffffffffff1673ffffffffffffffffffffffffffffffffffffffff1673ffffffffffffffffffffffffffffffffffffffff16815260200160028201548152602001600382015481526020016004820160009054906101000a900460ff1615151515815250509050919050565b3373ffffffffffffffffffffffffffffffffffffffff16600483815481106118cf577f4e487b7100000000000000000000000000000000000000000000000000000000600052603260045260246000fd5b906000526020600020906005020160010160009054906101000a900473ffffffffffffffffffffffffffffffffffffffff1673ffffffffffffffffffffffffffffffffffffffff161415611958576040517f08c379a000000000000000000000000000000000000000000000000000000000815260040161194f90613ead565b60405180910390fd5b6001151560048381548110611996577f4e487b7100000000000000000000000000000000000000000000000000000000600052603260045260246000fd5b906000526020600020906005020160040160009054906101000a900460ff161515146119f7576040517f08c379a00000000000000000000000000000000000000000000000000000000081526004016119ee9061402d565b60405180910390fd5b60048281548110611a31577f4e487b7100000000000000000000000000000000000000000000000000000000600052603260045260246000fd5b906000526020600020906005020160020154811115611a85576040517f08c379a0000000000000000000000000000000000000000000000000000000008152600401611a7c90613f6d565b60405180910390fd5b8060048381548110611ac0577f4e487b7100000000000000000000000000000000000000000000000000000000600052603260045260246000fd5b90600052602060002090600502016002016000828254611ae091906143bf565b92505081905550600060048381548110611b23577f4e487b7100000000000000000000000000000000000000000000000000000000600052603260045260246000fd5b9060005260206000209060050201600201541415611ba457600060048381548110611b77577f4e487b7100000000000000000000000000000000000000000000000000000000600052603260045260246000fd5b906000526020600020906005020160040160006101000a81548160ff021916908315150217905550611c28565b817f77b55f9e1287f00eecbb02dc56c525807beb51821d1d6cfe4447ba6fa3d84ed160048481548110611c00577f4e487b7100000000000000000000000000000000000000000000000000000000600052603260045260246000fd5b906000526020600020906005020160020154604051611c1f91906141e8565b60405180910390a25b3373ffffffffffffffffffffffffffffffffffffffff1660048381548110611c79577f4e487b7100000000000000000000000000000000000000000000000000000000600052603260045260246000fd5b906000526020600020906005020160010160009054906101000a900473ffffffffffffffffffffffffffffffffffffffff1673ffffffffffffffffffffffffffffffffffffffff16837f7bb118c21a52fdd89f2c9037c19a28625e6b133d6e59f24c55c1a93d2edae0038460048781548110611d1e577f4e487b7100000000000000000000000000000000000000000000000000000000600052603260045260246000fd5b906000526020600020906005020160030154604051611d3e929190614203565b60405180910390a45050565b600073ffffffffffffffffffffffffffffffffffffffff168273ffffffffffffffffffffffffffffffffffffffff161415611dba576040517f08c379a0000000000000000000000000000000000000000000000000000000008152600401611db1906141ad565b60405180910390fd5b80600554611dc891906142de565b60058190555080600a60008473ffffffffffffffffffffffffffffffffffffffff1673ffffffffffffffffffffffffffffffffffffffff16815260200190815260200160002054611e1991906142de565b600a60008473ffffffffffffffffffffffffffffffffffffffff1673ffffffffffffffffffffffffffffffffffffffff168152602001908152602001600020819055508173ffffffffffffffffffffffffffffffffffffffff16600073ffffffffffffffffffffffffffffffffffffffff167fddf252ad1be2c89b69c2b068fc378daa952ba7f163c4a11628f55a4df523b3ef83604051611eba91906141e8565b60405180910390a35050565b60606004805480602002602001604051908101604052809291908181526020016000905b82821015611fab57838290600052602060002090600502016040518060a0016040529081600082015481526020016001820160009054906101000a900473ffffffffffffffffffffffffffffffffffffffff1673ffffffffffffffffffffffffffffffffffffffff1673ffffffffffffffffffffffffffffffffffffffff16815260200160028201548152602001600382015481526020016004820160009054906101000a900460ff16151515158152505081526020019060010190611eea565b50505050905090565b600073ffffffffffffffffffffffffffffffffffffffff168373ffffffffffffffffffffffffffffffffffffffff161415612024576040517f08c379a000000000000000000000000000000000000000000000000000000000815260040161201b9061412d565b60405180910390fd5b600073ffffffffffffffffffffffffffffffffffffffff168273ffffffffffffffffffffffffffffffffffffffff161415612094576040517f08c379a000000000000000000000000000000000000000000000000000000000815260040161208b9061410d565b60405180910390fd5b80600a60008573ffffffffffffffffffffffffffffffffffffffff1673ffffffffffffffffffffffffffffffffffffffff168152602001908152602001600020541015612116576040517f08c379a000000000000000000000000000000000000000000000000000000000815260040161210d90613f2d565b60405180910390fd5b80600a60008473ffffffffffffffffffffffffffffffffffffffff1673ffffffffffffffffffffffffffffffffffffffff1681526020019081526020016000205461216191906142de565b600a60008473ffffffffffffffffffffffffffffffffffffffff1673ffffffffffffffffffffffffffffffffffffffff1681526020019081526020016000208190555080600a60008573ffffffffffffffffffffffffffffffffffffffff1673ffffffffffffffffffffffffffffffffffffffff168152602001908152602001600020546121ef91906143bf565b600a60008573ffffffffffffffffffffffffffffffffffffffff1673ffffffffffffffffffffffffffffffffffffffff168152602001908152602001600020819055508173ffffffffffffffffffffffffffffffffffffffff168373ffffffffffffffffffffffffffffffffffffffff167fddf252ad1be2c89b69c2b068fc378daa952ba7f163c4a11628f55a4df523b3ef8360405161228f91906141e8565b60405180910390a3505050565b600080600360003373ffffffffffffffffffffffffffffffffffffffff1673ffffffffffffffffffffffffffffffffffffffff168152602001908152602001600020541415612320576040517f08c379a00000000000000000000000000000000000000000000000000000000081526004016123179061418d565b60405180910390fd5b6000600360003373ffffffffffffffffffffffffffffffffffffffff1673ffffffffffffffffffffffffffffffffffffffff1681526020019081526020016000205490506000600282815481106123a0577f4e487b7100000000000000000000000000000000000000000000000000000000600052603260045260246000fd5b906000526020600020906002020160010180549050905060008060006123c68585612ef7565b8093508194505050818711156124f6576123e085856134a4565b6002858154811061241a577f4e487b7100000000000000000000000000000000000000000000000000000000600052603260045260246000fd5b906000526020600020906002020160010160405180606001604052803373ffffffffffffffffffffffffffffffffffffffff1681526020016000815260200142815250908060018154018082558091505060019003906000526020600020906003020160009091909190915060008201518160000160006101000a81548173ffffffffffffffffffffffffffffffffffffffff021916908373ffffffffffffffffffffffffffffffffffffffff1602179055506020820151816001015560408201518160020155505081836124ef91906142de565b9050612622565b6000878361250491906143bf565b905061251086866134a4565b6002868154811061254a577f4e487b7100000000000000000000000000000000000000000000000000000000600052603260045260246000fd5b906000526020600020906002020160010160405180606001604052803373ffffffffffffffffffffffffffffffffffffffff16815260200183815260200142815250908060018154018082558091505060019003906000526020600020906003020160009091909190915060008201518160000160006101000a81548173ffffffffffffffffffffffffffffffffffffffff021916908373ffffffffffffffffffffffffffffffffffffffff16021790555060208201518160010155604082015181600201555050878461261e91906142de565b9150505b8095505050505050919050565b600033905090565b3373ffffffffffffffffffffffffffffffffffffffff1660048381548110612688577f4e487b7100000000000000000000000000000000000000000000000000000000600052603260045260246000fd5b906000526020600020906005020160010160009054906101000a900473ffffffffffffffffffffffffffffffffffffffff1673ffffffffffffffffffffffffffffffffffffffff1614612710576040517f08c379a00000000000000000000000000000000000000000000000000000000081526004016127079061406d565b60405180910390fd5b600115156004838154811061274e577f4e487b7100000000000000000000000000000000000000000000000000000000600052603260045260246000fd5b906000526020600020906005020160040160009054906101000a900460ff161515146127af576040517f08c379a00000000000000000000000000000000000000000000000000000000081526004016127a69061402d565b60405180910390fd5b600081116127f2576040517f08c379a00000000000000000000000000000000000000000000000000000000081526004016127e990613f0d565b60405180910390fd5b806004838154811061282d577f4e487b7100000000000000000000000000000000000000000000000000000000600052603260045260246000fd5b906000526020600020906005020160030181905550817f9ce826527fa519a8bb184fb8f8402f35e26217289c08ec6015016a9f1b6bb37c8260405161287291906141e8565b60405180910390a25050565b60008060009054906101000a900473ffffffffffffffffffffffffffffffffffffffff169050816000806101000a81548173ffffffffffffffffffffffffffffffffffffffff021916908373ffffffffffffffffffffffffffffffffffffffff1602179055508173ffffffffffffffffffffffffffffffffffffffff168173ffffffffffffffffffffffffffffffffffffffff167f8be0079c531659141344cd1fd0a4f28419497f9722a3daafe3b4186f6b6457e060405160405180910390a35050565b600073ffffffffffffffffffffffffffffffffffffffff168273ffffffffffffffffffffffffffffffffffffffff1614156129b2576040517f08c379a00000000000000000000000000000000000000000000000000000000081526004016129a99061404d565b60405180910390fd5b80600a60008473ffffffffffffffffffffffffffffffffffffffff1673ffffffffffffffffffffffffffffffffffffffff168152602001908152602001600020541015612a34576040517f08c379a0000000000000000000000000000000000000000000000000000000008152600401612a2b9061400d565b60405180910390fd5b80600a60008473ffffffffffffffffffffffffffffffffffffffff1673ffffffffffffffffffffffffffffffffffffffff16815260200190815260200160002054612a7f91906143bf565b600a60008473ffffffffffffffffffffffffffffffffffffffff1673ffffffffffffffffffffffffffffffffffffffff1681526020019081526020016000208190555080600554612ad091906143bf565b600581905550600073ffffffffffffffffffffffffffffffffffffffff168273ffffffffffffffffffffffffffffffffffffffff167fddf252ad1be2c89b69c2b068fc378daa952ba7f163c4a11628f55a4df523b3ef83604051612b3491906141e8565b60405180910390a35050565b60008211612b83576040517f08c379a0000000000000000000000000000000000000000000000000000000008152600401612b7a906140ad565b60405180910390fd5b60008111612bc6576040517f08c379a0000000000000000000000000000000000000000000000000000000008152600401612bbd90613f0d565b60405180910390fd5b6000600480549050905060046040518060a001604052808381526020013373ffffffffffffffffffffffffffffffffffffffff1681526020018581526020018481526020016001151581525090806001815401808255809150506001900390600052602060002090600502016000909190919091506000820151816000015560208201518160010160006101000a81548173ffffffffffffffffffffffffffffffffffffffff021916908373ffffffffffffffffffffffffffffffffffffffff160217905550604082015181600201556060820151816003015560808201518160040160006101000a81548160ff02191690831515021790555050503373ffffffffffffffffffffffffffffffffffffffff16817f59827a9898740dc87f0e01c9f27ae034611bb083f06d7eb3efaef27336e3c4dd8585604051612d0b929190614203565b60405180910390a3505050565b3373ffffffffffffffffffffffffffffffffffffffff1660048281548110612d69577f4e487b7100000000000000000000000000000000000000000000000000000000600052603260045260246000fd5b906000526020600020906005020160010160009054906101000a900473ffffffffffffffffffffffffffffffffffffffff1673ffffffffffffffffffffffffffffffffffffffff1614612df1576040517f08c379a0000000000000000000000000000000000000000000000000000000008152600401612de89061406d565b60405180910390fd5b6001151560048281548110612e2f577f4e487b7100000000000000000000000000000000000000000000000000000000600052603260045260246000fd5b906000526020600020906005020160040160009054906101000a900460ff16151514612e90576040517f08c379a0000000000000000000000000000000000000000000000000000000008152600401612e879061402d565b60405180910390fd5b600060048281548110612ecc577f4e487b7100000000000000000000000000000000000000000000000000000000600052603260045260246000fd5b906000526020600020906005020160040160006101000a81548160ff02191690831515021790555050565b60008060008060005b8581101561305457600060028881548110612f44577f4e487b7100000000000000000000000000000000000000000000000000000000600052603260045260246000fd5b90600052602060002090600202016001018281548110612f8d577f4e487b7100000000000000000000000000000000000000000000000000000000600052603260045260246000fd5b90600052602060002090600302016040518060600160405290816000820160009054906101000a900473ffffffffffffffffffffffffffffffffffffffff1673ffffffffffffffffffffffffffffffffffffffff1673ffffffffffffffffffffffffffffffffffffffff168152602001600182015481526020016002820154815250509050600061301d82613592565b905081602001518461302f91906142de565b9350808561303d91906142de565b94505050808061304c906144ad565b915050612f00565b5081819350935050509250929050565b600081116130a7576040517f08c379a000000000000000000000000000000000000000000000000000000000815260040161309e90613ecd565b60405180910390fd5b6000600360003373ffffffffffffffffffffffffffffffffffffffff1673ffffffffffffffffffffffffffffffffffffffff1681526020019081526020016000205490506000429050600082141561310557613102336135d5565b91505b6002828154811061313f577f4e487b7100000000000000000000000000000000000000000000000000000000600052603260045260246000fd5b906000526020600020906002020160010160405180606001604052803373ffffffffffffffffffffffffffffffffffffffff16815260200185815260200183815250908060018154018082558091505060019003906000526020600020906003020160009091909190915060008201518160000160006101000a81548173ffffffffffffffffffffffffffffffffffffffff021916908373ffffffffffffffffffffffffffffffffffffffff160217905550602082015181600101556040820151816002015550503373ffffffffffffffffffffffffffffffffffffffff167fb4caaf29adda3eefee3ad552a8e85058589bf834c7466cae4ee58787f70589ed8484846040516132519392919061422c565b60405180910390a2505050565b600080600360003373ffffffffffffffffffffffffffffffffffffffff1673ffffffffffffffffffffffffffffffffffffffff1681526020019081526020016000205414156132e2576040517f08c379a00000000000000000000000000000000000000000000000000000000081526004016132d99061418d565b60405180910390fd5b6000600360003373ffffffffffffffffffffffffffffffffffffffff1673ffffffffffffffffffffffffffffffffffffffff168152602001908152602001600020549050600060028281548110613362577f4e487b7100000000000000000000000000000000000000000000000000000000600052603260045260246000fd5b90600052602060002090600202016001018054905090506000806133868484612ef7565b809250819350505061339884846134a4565b600284815481106133d2577f4e487b7100000000000000000000000000000000000000000000000000000000600052603260045260246000fd5b906000526020600020906002020160010160405180606001604052803373ffffffffffffffffffffffffffffffffffffffff16815260200183815260200142815250908060018154018082558091505060019003906000526020600020906003020160009091909190915060008201518160000160006101000a81548173ffffffffffffffffffffffffffffffffffffffff021916908373ffffffffffffffffffffffffffffffffffffffff160217905550602082015181600101556040820151816002015550508194505050505090565b60005b8181101561358d57600283815481106134e9577f4e487b7100000000000000000000000000000000000000000000000000000000600052603260045260246000fd5b90600052602060002090600202016001018181548110613532577f4e487b7100000000000000000000000000000000000000000000000000000000600052603260045260246000fd5b9060005260206000209060030201600080820160006101000a81549073ffffffffffffffffffffffffffffffffffffffff02191690556001820160009055600282016000905550508080613585906144ad565b9150506134a7565b505050565b60006001548260200151620151808460400151426135b091906143bf565b6135ba9190614334565b6135c49190614365565b6135ce9190614334565b9050919050565b60006002600181600181540180825580915050039060005260206000209050506000600160028054905061360991906143bf565b90508260028281548110613646577f4e487b7100000000000000000000000000000000000000000000000000000000600052603260045260246000fd5b906000526020600020906002020160000160006101000a81548173ffffffffffffffffffffffffffffffffffffffff021916908373ffffffffffffffffffffffffffffffffffffffff16021790555080600360008573ffffffffffffffffffffffffffffffffffffffff1673ffffffffffffffffffffffffffffffffffffffff1681526020019081526020016000208190555080915050919050565b6040518060a0016040528060008152602001600073ffffffffffffffffffffffffffffffffffffffff16815260200160008152602001600081526020016000151581525090565b60008135905061373881614d02565b92915050565b60008135905061374d81614d19565b92915050565b60006020828403121561376557600080fd5b600061377384828501613729565b91505092915050565b6000806040838503121561378f57600080fd5b600061379d85828601613729565b92505060206137ae85828601613729565b9150509250929050565b6000806000606084860312156137cd57600080fd5b60006137db86828701613729565b93505060206137ec86828701613729565b92505060406137fd8682870161373e565b9150509250925092565b6000806040838503121561381a57600080fd5b600061382885828601613729565b92505060206138398582860161373e565b9150509250929050565b60006020828403121561385557600080fd5b60006138638482850161373e565b91505092915050565b6000806040838503121561387f57600080fd5b600061388d8582860161373e565b925050602061389e8582860161373e565b9150509250929050565b60006138b48383613d21565b60a08301905092915050565b6138c9816143f3565b82525050565b6138d8816143f3565b82525050565b60006138e98261428e565b6138f381856142b1565b93506138fe8361427e565b8060005b8381101561392f57815161391688826138a8565b9750613921836142a4565b925050600181019050613902565b5085935050505092915050565b61394581614405565b82525050565b61395481614405565b82525050565b600061396582614299565b61396f81856142cd565b935061397f818560208601614448565b61398881614583565b840191505092915050565b60006139a06027836142cd565b91506139ab82614594565b604082019050919050565b60006139c36037836142cd565b91506139ce826145e3565b604082019050919050565b60006139e66026836142cd565b91506139f182614632565b604082019050919050565b6000613a09603c836142cd565b9150613a1482614681565b604082019050919050565b6000613a2c602d836142cd565b9150613a37826146d0565b604082019050919050565b6000613a4f6022836142cd565b9150613a5a8261471f565b604082019050919050565b6000613a726039836142cd565b9150613a7d8261476e565b604082019050919050565b6000613a956031836142cd565b9150613aa0826147bd565b604082019050919050565b6000613ab86033836142cd565b9150613ac38261480c565b604082019050919050565b6000613adb6025836142cd565b9150613ae68261485b565b604082019050919050565b6000613afe6022836142cd565b9150613b09826148aa565b604082019050919050565b6000613b216029836142cd565b9150613b2c826148f9565b604082019050919050565b6000613b44602c836142cd565b9150613b4f82614948565b604082019050919050565b6000613b676024836142cd565b9150613b7282614997565b604082019050919050565b6000613b8a6021836142cd565b9150613b95826149e6565b604082019050919050565b6000613bad6014836142cd565b9150613bb882614a35565b602082019050919050565b6000613bd06047836142cd565b9150613bdb82614a5e565b606082019050919050565b6000613bf36021836142cd565b9150613bfe82614ad3565b604082019050919050565b6000613c166020836142cd565b9150613c2182614b22565b602082019050919050565b6000613c396026836142cd565b9150613c4482614b4b565b604082019050919050565b6000613c5c6028836142cd565b9150613c6782614b9a565b604082019050919050565b6000613c7f6036836142cd565b9150613c8a82614be9565b604082019050919050565b6000613ca26000836142c2565b9150613cad82614c38565b600082019050919050565b6000613cc56017836142cd565b9150613cd082614c3b565b602082019050919050565b6000613ce86024836142cd565b9150613cf382614c64565b604082019050919050565b6000613d0b6022836142cd565b9150613d1682614cb3565b604082019050919050565b60a082016000820151613d376000850182613df1565b506020820151613d4a60208501826138c0565b506040820151613d5d6040850182613df1565b506060820151613d706060850182613df1565b506080820151613d83608085018261393c565b50505050565b60a082016000820151613d9f6000850182613df1565b506020820151613db260208501826138c0565b506040820151613dc56040850182613df1565b506060820151613dd86060850182613df1565b506080820151613deb608085018261393c565b50505050565b613dfa81614431565b82525050565b613e0981614431565b82525050565b613e188161443b565b82525050565b6000613e2982613c95565b9150819050919050565b6000602082019050613e4860008301846138cf565b92915050565b60006020820190508181036000830152613e6881846138de565b905092915050565b6000602082019050613e85600083018461394b565b92915050565b60006020820190508181036000830152613ea5818461395a565b905092915050565b60006020820190508181036000830152613ec681613993565b9050919050565b60006020820190508181036000830152613ee6816139b6565b9050919050565b60006020820190508181036000830152613f06816139d9565b9050919050565b60006020820190508181036000830152613f26816139fc565b9050919050565b60006020820190508181036000830152613f4681613a1f565b9050919050565b60006020820190508181036000830152613f6681613a42565b9050919050565b60006020820190508181036000830152613f8681613a65565b9050919050565b60006020820190508181036000830152613fa681613a88565b9050919050565b60006020820190508181036000830152613fc681613aab565b9050919050565b60006020820190508181036000830152613fe681613ace565b9050919050565b6000602082019050818103600083015261400681613af1565b9050919050565b6000602082019050818103600083015261402681613b14565b9050919050565b6000602082019050818103600083015261404681613b37565b9050919050565b6000602082019050818103600083015261406681613b5a565b9050919050565b6000602082019050818103600083015261408681613b7d565b9050919050565b600060208201905081810360008301526140a681613ba0565b9050919050565b600060208201905081810360008301526140c681613bc3565b9050919050565b600060208201905081810360008301526140e681613be6565b9050919050565b6000602082019050818103600083015261410681613c09565b9050919050565b6000602082019050818103600083015261412681613c2c565b9050919050565b6000602082019050818103600083015261414681613c4f565b9050919050565b6000602082019050818103600083015261416681613c72565b9050919050565b6000602082019050818103600083015261418681613cb8565b9050919050565b600060208201905081810360008301526141a681613cdb565b9050919050565b600060208201905081810360008301526141c681613cfe565b9050919050565b600060a0820190506141e26000830184613d89565b92915050565b60006020820190506141fd6000830184613e00565b92915050565b60006040820190506142186000830185613e00565b6142256020830184613e00565b9392505050565b60006060820190506142416000830186613e00565b61424e6020830185613e00565b61425b6040830184613e00565b949350505050565b60006020820190506142786000830184613e0f565b92915050565b6000819050602082019050919050565b600081519050919050565b600081519050919050565b6000602082019050919050565b600082825260208201905092915050565b600081905092915050565b600082825260208201905092915050565b60006142e982614431565b91506142f483614431565b9250827fffffffffffffffffffffffffffffffffffffffffffffffffffffffffffffffff03821115614329576143286144f6565b5b828201905092915050565b600061433f82614431565b915061434a83614431565b92508261435a57614359614525565b5b828204905092915050565b600061437082614431565b915061437b83614431565b9250817fffffffffffffffffffffffffffffffffffffffffffffffffffffffffffffffff04831182151516156143b4576143b36144f6565b5b828202905092915050565b60006143ca82614431565b91506143d583614431565b9250828210156143e8576143e76144f6565b5b828203905092915050565b60006143fe82614411565b9050919050565b60008115159050919050565b600073ffffffffffffffffffffffffffffffffffffffff82169050919050565b6000819050919050565b600060ff82169050919050565b60005b8381101561446657808201518184015260208101905061444b565b83811115614475576000848401525b50505050565b6000600282049050600182168061449357607f821691505b602082108114156144a7576144a6614554565b5b50919050565b60006144b882614431565b91507fffffffffffffffffffffffffffffffffffffffffffffffffffffffffffffffff8214156144eb576144ea6144f6565b5b600182019050919050565b7f4e487b7100000000000000000000000000000000000000000000000000000000600052601160045260246000fd5b7f4e487b7100000000000000000000000000000000000000000000000000000000600052601260045260246000fd5b7f4e487b7100000000000000000000000000000000000000000000000000000000600052602260045260246000fd5b6000601f19601f8301169050919050565b7f5472616461626c653a20796f752063616e6e6f742062757920796f7572206f7760008201527f6e206f7264657200000000000000000000000000000000000000000000000000602082015250565b7f5374616b61626c653a20796f752063616e206f6e6c79207374616b652061207060008201527f6f736974697665206e6f6e206e756c6c20616d6f756e74000000000000000000602082015250565b7f4f776e61626c653a206e6577206f776e657220697320746865207a65726f206160008201527f6464726573730000000000000000000000000000000000000000000000000000602082015250565b7f5472616261626c653a20796f75206f7264657220746f6b656e2070726963652060008201527f6d75737420626520706f737469766520616e64206e6f74206e756c6c00000000602082015250565b7f546f6b656e3a2063616e6e6f74207472616e73666572206d6f7265207468616e60008201527f206163636f756e74206f776e7300000000000000000000000000000000000000602082015250565b7f546f6b656e3a2063616e6e6f7420617070726f7665207a65726f20616464726560008201527f7373000000000000000000000000000000000000000000000000000000000000602082015250565b7f5472616461626c653a2063616e6e6f742062757920616d6f756e74206772656160008201527f746572207468616e20706c61636564206f6e206f726465722e00000000000000602082015250565b7f546f6b656e3a20596f752063616e6e6f74207370656e642074686174206d756360008201527f68206f6e2074686973206163636f756e74000000000000000000000000000000602082015250565b7f546f6b656e3a2063616e6e6f7420706c61636520616e206f726465722077697460008201527f68206d6f7265207468616e20796f75206f776e00000000000000000000000000602082015250565b7f546f6b656e3a2063616e6e6f74207374616b65206d6f7265207468616e20796f60008201527f75206f776e000000000000000000000000000000000000000000000000000000602082015250565b7f546f6b656e3a207a65726f20616464726573732063616e6e6f7420617070726f60008201527f7665000000000000000000000000000000000000000000000000000000000000602082015250565b7f546f6b656e3a2063616e6e6f74206275726e206d6f7265207468616e2061636360008201527f6f756e74206f776e730000000000000000000000000000000000000000000000602082015250565b7f5472616461626c653a206f726465722077617320616c72656164792072656d6f60008201527f766564206f722062757965640000000000000000000000000000000000000000602082015250565b7f546f6b656e3a2063616e6e6f74206275726e2066726f6d207a65726f2061646460008201527f7265737300000000000000000000000000000000000000000000000000000000602082015250565b7f5472616461626c653a2074686174206f72646572206973206e6f7420796f757260008201527f7300000000000000000000000000000000000000000000000000000000000000602082015250565b7f546f6b656e3a206e6f207265656e7472616e6379000000000000000000000000600082015250565b7f5472616461626c653a20796f752063616e206f6e6c7920706c6163652061207360008201527f656c6c206f72646572206f66206120706f736974697665206e6f6e206e756c6c60208201527f20616d6f756e7400000000000000000000000000000000000000000000000000604082015250565b7f546f6b656e3a206e6f206574686572206c65667420746f20776974686472617760008201527f2e00000000000000000000000000000000000000000000000000000000000000602082015250565b7f4f776e61626c653a2063616c6c6572206973206e6f7420746865206f776e6572600082015250565b7f546f6b656e3a2063616e6e6f74207472616e7366657220746f207a65726f206160008201527f6464726573730000000000000000000000000000000000000000000000000000602082015250565b7f546f6b656e3a2063616e6e6f74207472616e736665722066726f6d207a65726f60008201527f2061646472657373000000000000000000000000000000000000000000000000602082015250565b7f546f6b656e3a2065746865722073656e74206d7573742062652067726561746560008201527f72206f7220657175616c206f7264657250726963652e00000000000000000000602082015250565b50565b7f546f6b656e3a207769746864726177206661696c65642e000000000000000000600082015250565b7f5374616b61626c653a206164647265737320686173206e6f7468696e6720737460008201527f616b656400000000000000000000000000000000000000000000000000000000602082015250565b7f546f6b656e3a2063616e6e6f74206d696e7420746f207a65726f20616464726560008201527f7373000000000000000000000000000000000000000000000000000000000000602082015250565b614d0b816143f3565b8114614d1657600080fd5b50565b614d2281614431565b8114614d2d57600080fd5b5056fea2646970667358221220a67c05b3af99e88e6e3f9dd5c5ad03851c2ed17db8d0eb529fb1ac83cea70c8d64736f6c63430008040033",
  "linkReferences": {},
  "deployedLinkReferences": {}
}